:100000000EC028C027C00BC4B9C3F7C223C022C08A
:1000100021C02AC438C35CC31DC01CC01BC011242E
:100020001FBECFE5D1E0DEBFCDBF10E0A4E6B0E05B
:1000300001C01D92A636B107E1F710E0A0E6B0E0DE
:10004000EEE3FEE002C005900D92A436B107D9F7A9
:1000500002D0F3C6D5CFDF93CF93CDB7DEB7A1974C
:100060000FB6F894DEBF0FBECDBF1982CE01029647
:10007000A6D0CE014F9664E049E141D459D28F8D8C
:10008000882F90E080729070009709F046D58F8D90
:1000900088230CF442D5CE014F965FD48F8D882FE4
:1000A00090E080729070009759F18981F4D0898333
:1000B0008981882399F087E390E027E330E0F90114
:1000C0002081277FFC01208388E390E028E330E053
:1000D000F90120812F7EFC01208312C087E390E08C
:1000E00027E330E0F90120812860FC01208388E3C8
:1000F00090E028E330E0F90120812061FC012083B9
:100100008981853049F08A859B859F878E878A897A
:100110009B899D8B8C8B1E8E8981882F90E08330EC
:10012000910519F1843091054CF48130910599F0D5
:1001300082309105ACF4009759F027C085309105C5
:10014000F1F085309105B4F086309105E1F01DC0E5
:100150001F821E821AC0888599859F838E8315C051
:1001600080E690E09F838E8310C080E890E09F83BC
:100170008E830BC08A819B819F838E8306C0CE01B4
:100180000296B9D002C0C9D40000F8948C859D8530
:10019000009799F48E859F859D878C878E819F819E
:1001A0009D838C8388E490E0209164003091650009
:1001B000F90122813381FC01208378946CCFDF9395
:1001C000CF9300D0CDB7DEB79A83898389819A8196
:1001D00060E070E04DE150E09CD589819A8121E09A
:1001E00030E0FC013187208789819A8122E030E06C
:1001F000FC013387228789819A8122E030E0FC016B
:100200003587248789819A8125E030E0FC01378792
:10021000268789819A8122E030E0FC01318B208B96
:1002200089819A8122E030E0FC01338B228B898125
:100230009A8123E030E0FC01358B248B89819A81FF
:100240002BE430E0FC013783268389819A81FC010D
:100250002681378189819A81FC01338322838981B8
:100260009A81FC012281338189819A81FC01358345
:10027000248389819A8126E930E0FC01318320833F
:1002800089819A8190936500809364000F900F900C
:10029000CF91DF910895DF93CF9300D0CDB7DEB734
:1002A0008A838A8189838A81882F90E0019626E05B
:1002B00030E0B901B8D489838981882349F48981E0
:1002C000882F90E0019626E030E0B901ACD4898314
:1002D0008981882309F421D48981863008F01DD4CE
:1002E0009A818981981709F418D489810F900F9009
:1002F000CF91DF910895DF93CF9300D0CDB7DEB7D4
:100300009A838983F89489819A81FC0182859385F7
:10031000009711F0789407C1789489819A81FC0143
:10032000848D882F90E08230910509F444C0833099
:1003300091053CF4009709F484C08130910551F097
:1003400081C08330910509F467C08430910509F4B8
:1003500076C078C089819A81FC01208131818981B0
:100360009A81FC01808D918D281B390B89819A819E
:10037000FC0184819581821793075CF089819A81C1
:10038000FC012081318189819A81FC01358324839C
:1003900059C089819A81FC012481358189819A81A2
:1003A000FC01808D918D280F391F89819A81FC0174
:1003B0003583248347C089819A81FC012681378156
:1003C00089819A81FC01808D918D280F391F898147
:1003D0009A81FC0184819581821793075CF0898161
:1003E0009A81FC012681378189819A81FC013583BC
:1003F000248328C089819A81FC01248135818981E7
:100400009A81FC01808D918D281B390B89819A81FD
:10041000FC013583248316C089819A81FC01868181
:10042000978129813A81F90120813181B901C3D3B2
:100430009C0189819A81FC013583248303C06DD39B
:1004400001C0000089819A81FC0124813581898164
:100450009A81FC01808191818217930754F48981EC
:100460009A81FC012081318189819A81FC01358347
:10047000248389819A81FC012481358189819A8133
:10048000FC01868197812817390754F489819A8164
:10049000FC012681378189819A81FC01358324837F
:1004A00089819A81FC0182899389009779F58981F4
:1004B0009A81FC018085918529813A81F9012685FF
:1004C0003785B90178D39C0189819A81FC013587F0
:1004D000248789819A81FC018089918929813A81C7
:1004E000F90124893589B90166D39C0189819A81F2
:1004F000FC01338B228B80E090E064E070E05BD302
:10050000282F89819A81FC01248F0DC089819A81CD
:10051000FC01828993899C012150304089819A8114
:10052000FC01338B228B0F900F90CF91DF910895B8
:10053000DF93CF93CDB7DEB788E290E020E8FC01EF
:100540002083B7D18CE490E02CE430E0F9012081E5
:100550002068FC01208316D0E0D08CE490E02CE4ED
:1005600030E0F90120812F77FC0120838FE590E0B6
:100570002FE530E0F90120812068FC012083CF9134
:10058000DF910895DF93CF93CDB7DEB788E590E094
:1005900028E530E0F90120812A61FC01208389E50A
:1005A00090E029E530E0F9012081257EFC012083DF
:1005B00089E590E029E530E0F9012081FC01208304
:1005C00089E490E02FEFFC01208388E490E0209103
:1005D000640030916500F90122813381FC012083A0
:1005E0008AE490E021E2FC01208383E590E029E0A9
:1005F000FC012083CF91DF9108951F920F920FB6D7
:100600000F9211242F933F938F939F93EF93FF9318
:10061000DF93CF93CDB7DEB789E590E029E530E0F1
:10062000F90120812D7FFC01208388E590E028E5F9
:1006300030E0F90120812260FC01208388E490E011
:100640002091640030916500F90122813381FC0121
:10065000208382E590E0FC01108289E590E029E5A5
:1006600030E0F90120812260FC012083CF91DF91ED
:10067000FF91EF919F918F913F912F910F900FBE1E
:100680000F901F9018951F920F920FB60F92112482
:100690002F933F938F939F93EF93FF93DF93CF938A
:1006A000CDB7DEB788E590E028E530E0F90120819C
:1006B0002061FC012083CF91DF91FF91EF919F9109
:1006C0008F913F912F910F900FBE0F901F90189513
:1006D0001F920F920FB60F9211242F933F938F9377
:1006E0009F93EF93FF93DF93CF93CDB7DEB788E56A
:1006F00090E028E530E0F90120812860FC012083AA
:10070000CF91DF91FF91EF919F918F913F912F9129
:100710000F900FBE0F901F901895DF93CF93CDB71A
:10072000DEB780E590E02CE0FC0120838FE490E0D0
:10073000FC0110828EE490E024E0FC0120838BE435
:1007400090E020E8FC0120838DE490E02FEFFC0195
:10075000208388E590E028E530E0F90120812466D7
:10076000FC01208389E590E029E530E0F901208152
:100770002460FC012083CF91DF9108951F920F9296
:100780000FB60F9211242F933F938F939F93EF9364
:10079000FF93DF93CF93CDB7DEB789E590E029E5EE
:1007A00030E0F90120812B7FFC01208388E590E077
:1007B00028E530E0F90120812460FC01208380914C
:1007C000640090916500FC018285938518161906D6
:1007D00064F48091640090916500FC01228533856A
:1007E00021503040FC01338722878FE490E0FC01E8
:1007F000108289E590E029E530E0F901208124604C
:10080000FC012083CF91DF91FF91EF919F918F9118
:100810003F912F910F900FBE0F901F9018951F9230
:100820000F920FB60F9211242F933F938F939F93A4
:10083000EF93FF93DF93CF93CDB7DEB788E590E0DA
:1008400028E530E0F90120812064FC012083CF916C
:10085000DF91FF91EF919F918F913F912F910F9099
:100860000FBE0F901F9018951F920F920FB60F9208
:1008700011242F933F938F939F93EF93FF93DF93D5
:10088000CF93CDB7DEB788E590E028E530E0F901F9
:1008900020812062FC012083CF91DF91FF91EF91B5
:1008A0009F918F913F912F910F900FBE0F901F90AE
:1008B0001895DF93CF93CDB7DEB787E390E0FC01C7
:1008C000108287E390E027E330E0F90120812A607D
:1008D000FC01208388E390E028E330E0F9012081E7
:1008E0002D7FFC01208388E390E028E330E0F901CC
:1008F00020812860FC012083CF91DF910895DF9350
:10090000CF9300D000D0CDB7DEB79A8389836B83B5
:100910004C8389819A81009709F4FFD08B818830BC
:1009200008F0FBD08C81882309F4F7D08B81282F25
:10093000277089819A81FC01208389819A81FC0139
:10094000118289819A812C81FC0122830F900F9062
:100950000F900F90CF91DF910895DF93CF93CDB794
:10096000DEB72A970FB6F894DEBF0FBECDBF9A87C9
:1009700089871A8219821C821B821E821D828985A8
:100980009A85FC018081282F2F7E89859A85FC011C
:10099000208389859A85FC018081882F90E088706A
:1009A0009070009771F089859A85FC018081282FCD
:1009B000206189859A85FC01208381E090E09A83FB
:1009C000898389859A85FC018081282F277F8985E5
:1009D0009A85FC01208389859A85FC018081882F76
:1009E00090E08770907098878F8386E390E0FC0199
:1009F0008081882F90E00F8002C0959587950A949A
:100A0000E2F781709070882371F089859A85FC01E6
:100A10008081282F286089859A85FC01208381E0C8
:100A200090E09C838B832B813C8189819A8128175C
:100A3000390759F489859A85FC018181282F2F5F18
:100A400089859A85FC01218304C089859A85FC01EA
:100A5000118289859A85FC018081282F2F798985CB
:100A60009A85FC01208389859A85FC0121818985ED
:100A70009A85FC018281281709F046C089859A85EC
:100A8000FC018081882324F481E090E09E838D83A3
:100A900089859A85FC018081282F2F7789859A8501
:100AA000FC0120838B819C81009751F089859A8578
:100AB000FC018081282F206889859A85FC0120838C
:100AC0008B819C81009771F08D819E81009751F4FC
:100AD00089859A85FC018081282F206289859A85E5
:100AE000FC0120838B819C81009771F48D819E8114
:100AF000009751F089859A85FC018081282F206418
:100B000089859A85FC0120832A960FB6F894DEBF6A
:100B10000FBECDBFCF91DF910895DF93CF93CDB7B7
:100B2000DEB7F89488E390E028E330E0F901208113
:100B30002860FC01208387E390E027E330E0F9019F
:100B400020812860FC0120838CE490E02CE430E0DC
:100B5000F90120812068FC0120838AE490E02AE4E6
:100B600030E0F90120812F70FC01208383E590E0C3
:100B700023E530E0F9012081287FFC01208380E516
:100B800090E020E530E0F9012081287FFC012083FE
:100B900088E390E028E330E0F90120812D7FFC011B
:100BA000208387E390E027E330E0F90120812D7F67
:100BB000FC012083FFCFDF93CF9300D000D000D083
:100BC000CDB7DEB79C838B837E836D8393D04D81BD
:100BD0005E812B813C81BA01621B730B9B01B901C1
:100BE00022D09C018B819C81820F931F9A838983E1
:100BF00029813A818B819C81281739070CF48DDF7C
:100C000029813A818D819E81821793070CF485DFBB
:100C100089819A8126960FB6F894DEBF0FBECDBFAC
:100C2000CF91DF91089597FB092E07260AD077FD13
:100C300004D00CD006D000201AF4709561957F4F37
:100C40000895F6F7909581959F4F0895AA1BBB1BB9
:100C500051E107C0AA1FBB1FA617B70710F0A61BBC
:100C6000B70B881F991F5A95A9F780959095BC01DD
:100C7000CD010895A0E0B0E0EFE3F6E08DC0EC0117
:100C8000688179818A819B81611571058105910552
:100C900021F464E279ED8BE597E02DE133EF41E05B
:100CA00050E057D079018A0127EA31E440E050E072
:100CB00037D05B016C01C801B7012CEE34EF4FEF68
:100CC0005FEF2ED09B01AC012A0D3B1D4C1D5D1D1D
:100CD00057FF04C02150304040405048288339839A
:100CE0004A835B833F77C901CDB7DEB7EAE070C0C6
:100CF000C1DF089580E690E0BDDF0895A0E0B0E098
:100D00008093600090936100A0936200B0936300B1
:100D10000895DC0101C06D9341505040E0F7089503
:100D2000FF27EE27BB27AA2760FF04C0A20FB31F2F
:100D3000E41FF51F220F331F441F551F96958795FB
:100D40007795679589F70097760771F7CF01BD0111
:100D5000089597FB092E05260ED057FD04D04BD0E1
:100D60000AD0001C38F450954095309521953F4F9E
:100D70004F4F5F4F0895F6F7909580957095619568
:100D80007F4F8F4F9F4F08952F923F924F925F92C8
:100D90006F927F928F929F92AF92BF92CF92DF928B
:100DA000EF92FF920F931F93CF93DF93CDB7DEB7F0
:100DB000CA1BDB0B0FB6F894DEBF0FBECDBF099484
:100DC0002A88398848885F846E847D848C849B84DB
:100DD000AA84B984C884DF80EE80FD800C811B81E9
:100DE000AA81B981CE0FD11D0FB6F894DEBF0FBE18
:100DF000CDBFED010895A1E21A2EAA1BBB1BFD0178
:100E00000DC0AA1FBB1FEE1FFF1FA217B307E407E9
:100E1000F50720F0A21BB30BE40BF50B661F771F41
:100E2000881F991F1A9469F7609570958095909521
:0E0E30009B01AC01BD01CF010895F894FFCFE6
:040E3E0001000000AF
:00000001FF
